{
  "contractName": "BankingTransactions",
  "abi": [
    {
      "anonymous": false,
      "inputs": [
        {
          "indexed": true,
          "internalType": "address",
          "name": "account",
          "type": "address"
        },
        {
          "indexed": false,
          "internalType": "uint256",
          "name": "amount",
          "type": "uint256"
        },
        {
          "indexed": false,
          "internalType": "uint256",
          "name": "timestamp",
          "type": "uint256"
        }
      ],
      "name": "Deposit",
      "type": "event"
    },
    {
      "anonymous": false,
      "inputs": [
        {
          "indexed": true,
          "internalType": "address",
          "name": "from",
          "type": "address"
        },
        {
          "indexed": true,
          "internalType": "address",
          "name": "to",
          "type": "address"
        },
        {
          "indexed": false,
          "internalType": "uint256",
          "name": "amount",
          "type": "uint256"
        },
        {
          "indexed": false,
          "internalType": "uint256",
          "name": "timestamp",
          "type": "uint256"
        }
      ],
      "name": "Transfer",
      "type": "event"
    },
    {
      "anonymous": false,
      "inputs": [
        {
          "indexed": true,
          "internalType": "address",
          "name": "account",
          "type": "address"
        },
        {
          "indexed": false,
          "internalType": "uint256",
          "name": "amount",
          "type": "uint256"
        },
        {
          "indexed": false,
          "internalType": "uint256",
          "name": "timestamp",
          "type": "uint256"
        }
      ],
      "name": "Withdraw",
      "type": "event"
    },
    {
      "inputs": [
        {
          "internalType": "address",
          "name": "",
          "type": "address"
        }
      ],
      "name": "balances",
      "outputs": [
        {
          "internalType": "uint256",
          "name": "",
          "type": "uint256"
        }
      ],
      "stateMutability": "view",
      "type": "function",
      "constant": true
    },
    {
      "inputs": [],
      "name": "deposit",
      "outputs": [],
      "stateMutability": "payable",
      "type": "function",
      "payable": true
    },
    {
      "inputs": [
        {
          "internalType": "uint256",
          "name": "_amount",
          "type": "uint256"
        }
      ],
      "name": "withdraw",
      "outputs": [],
      "stateMutability": "nonpayable",
      "type": "function"
    },
    {
      "inputs": [
        {
          "internalType": "address",
          "name": "_to",
          "type": "address"
        },
        {
          "internalType": "uint256",
          "name": "_amount",
          "type": "uint256"
        }
      ],
      "name": "transfer",
      "outputs": [],
      "stateMutability": "nonpayable",
      "type": "function"
    }
  ],
  "bytecode": "0x608060405234801561001057600080fd5b50610922806100206000396000f3fe60806040526004361061003f5760003560e01c806327e235e3146100445780632e1a7d4d14610081578063a9059cbb146100aa578063d0e30db0146100d3575b600080fd5b34801561005057600080fd5b5061006b600480360381019061006691906105b7565b6100dd565b60405161007891906105fd565b60405180910390f35b34801561008d57600080fd5b506100a860048036038101906100a39190610644565b6100f5565b005b3480156100b657600080fd5b506100d160048036038101906100cc9190610671565b610265565b005b6100db61046a565b005b60006020528060005260406000206000915090505481565b806000803373ffffffffffffffffffffffffffffffffffffffff1673ffffffffffffffffffffffffffffffffffffffff168152602001908152602001600020541015610176576040517f08c379a000000000000000000000000000000000000000000000000000000000815260040161016d9061070e565b60405180910390fd5b3373ffffffffffffffffffffffffffffffffffffffff166108fc829081150290604051600060405180830381858888f193505050501580156101bc573d6000803e3d6000fd5b50806000803373ffffffffffffffffffffffffffffffffffffffff1673ffffffffffffffffffffffffffffffffffffffff168152602001908152602001600020600082825461020b919061075d565b925050819055503373ffffffffffffffffffffffffffffffffffffffff167ff279e6a1f5e320cca91135676d9cb6e44ca8a08c0b88342bcdb1144f6511b568824260405161025a929190610791565b60405180910390a250565b806000803373ffffffffffffffffffffffffffffffffffffffff1673ffffffffffffffffffffffffffffffffffffffff1681526020019081526020016000205410156102e6576040517f08c379a00000000000000000000000000000000000000000000000000000000081526004016102dd9061070e565b60405180910390fd5b600073ffffffffffffffffffffffffffffffffffffffff168273ffffffffffffffffffffffffffffffffffffffff1603610355576040517f08c379a000000000000000000000000000000000000000000000000000000000815260040161034c90610806565b60405180910390fd5b806000803373ffffffffffffffffffffffffffffffffffffffff1673ffffffffffffffffffffffffffffffffffffffff16815260200190815260200160002060008282546103a3919061075d565b92505081905550806000808473ffffffffffffffffffffffffffffffffffffffff1673ffffffffffffffffffffffffffffffffffffffff16815260200190815260200160002060008282546103f89190610826565b925050819055508173ffffffffffffffffffffffffffffffffffffffff163373ffffffffffffffffffffffffffffffffffffffff167f9ed053bb818ff08b8353cd46f78db1f0799f31c9e4458fdb425c10eccd2efc44834260405161045e929190610791565b60405180910390a35050565b600034116104ad576040517f08c379a00000000000000000000000000000000000000000000000000000000081526004016104a4906108cc565b60405180910390fd5b346000803373ffffffffffffffffffffffffffffffffffffffff1673ffffffffffffffffffffffffffffffffffffffff16815260200190815260200160002060008282546104fb9190610826565b925050819055503373ffffffffffffffffffffffffffffffffffffffff167f90890809c654f11d6e72a28fa60149770a0d11ec6c92319d6ceb2bb0a4ea1a15344260405161054a929190610791565b60405180910390a2565b600080fd5b600073ffffffffffffffffffffffffffffffffffffffff82169050919050565b600061058482610559565b9050919050565b61059481610579565b811461059f57600080fd5b50565b6000813590506105b18161058b565b92915050565b6000602082840312156105cd576105cc610554565b5b60006105db848285016105a2565b91505092915050565b6000819050919050565b6105f7816105e4565b82525050565b600060208201905061061260008301846105ee565b92915050565b610621816105e4565b811461062c57600080fd5b50565b60008135905061063e81610618565b92915050565b60006020828403121561065a57610659610554565b5b60006106688482850161062f565b91505092915050565b6000806040838503121561068857610687610554565b5b6000610696858286016105a2565b92505060206106a78582860161062f565b9150509250929050565b600082825260208201905092915050565b7f496e73756666696369656e742062616c616e63652e0000000000000000000000600082015250565b60006106f86015836106b1565b9150610703826106c2565b602082019050919050565b60006020820190508181036000830152610727816106eb565b9050919050565b7f4e487b7100000000000000000000000000000000000000000000000000000000600052601160045260246000fd5b6000610768826105e4565b9150610773836105e4565b925082820390508181111561078b5761078a61072e565b5b92915050565b60006040820190506107a660008301856105ee565b6107b360208301846105ee565b9392505050565b7f496e76616c696420726563697069656e7420616464726573732e000000000000600082015250565b60006107f0601a836106b1565b91506107fb826107ba565b602082019050919050565b6000602082019050818103600083015261081f816107e3565b9050919050565b6000610831826105e4565b915061083c836105e4565b92508282019050808211156108545761085361072e565b5b92915050565b7f4465706f73697420616d6f756e74206d7573742062652067726561746572207460008201527f68616e207a65726f2e0000000000000000000000000000000000000000000000602082015250565b60006108b66029836106b1565b91506108c18261085a565b604082019050919050565b600060208201905081810360008301526108e5816108a9565b905091905056fea26469706673582212207d32f06af4fd85b8df1df41df2aa131bafa8a84d0d536f896ddba923d92531f264736f6c63430008130033",
  "immutableReferences": {},
  "source": "// SPDX-License-Identifier: MIT\r\npragma solidity ^0.8.19;\r\n\r\ncontract BankingTransactions {\r\n    mapping(address => uint) public balances;\r\n\r\n    // Block timestamp to events\r\n    event Deposit(address indexed account, uint amount, uint timestamp);\r\n    event Withdraw(address indexed account, uint amount, uint timestamp);\r\n    event Transfer(address indexed from, address indexed to, uint amount, uint timestamp);\r\n\r\n    function deposit() public payable {\r\n        require(msg.value > 0, \"Deposit amount must be greater than zero.\");\r\n        balances[msg.sender] += msg.value;\r\n        emit Deposit(msg.sender, msg.value, block.timestamp);\r\n    }\r\n\r\n    function withdraw(uint _amount) public {\r\n        require(balances[msg.sender] >= _amount, \"Insufficient balance.\");\r\n        payable(msg.sender).transfer(_amount);\r\n        balances[msg.sender] -= _amount;\r\n        emit Withdraw(msg.sender, _amount, block.timestamp);\r\n    }\r\n\r\n    function transfer(address _to, uint _amount) public {\r\n        require(balances[msg.sender] >= _amount, \"Insufficient balance.\");\r\n        require(_to != address(0), \"Invalid recipient address.\");\r\n        \r\n        balances[msg.sender] -= _amount;\r\n        balances[_to] += _amount;\r\n        emit Transfer(msg.sender, _to, _amount, block.timestamp);\r\n    }\r\n}\r\n\r\n",
  "sourcePath": "C:\\Users\\james\\new2\\contracts\\BankingTransactions.sol",
  "compiler": {
    "name": "solc",
    "version": "0.8.19+commit.7dd6d404.Emscripten.clang"
  },
  "schemaVersion": "3.4.16",
  "updatedAt": "2024-05-08T22:39:11.400Z",
  "networkType": "ethereum",
  "devdoc": {
    "kind": "dev",
    "methods": {},
    "version": 1
  },
  "userdoc": {
    "kind": "user",
    "methods": {},
    "version": 1
  }
}