{
  "contractName": "KYCContract",
  "abi": [
    {
      "anonymous": false,
      "inputs": [
        {
          "indexed": true,
          "internalType": "address",
          "name": "customer",
          "type": "address"
        },
        {
          "indexed": false,
          "internalType": "bool",
          "name": "status",
          "type": "bool"
        }
      ],
      "name": "KYCUpdated",
      "type": "event"
    },
    {
      "inputs": [
        {
          "internalType": "address",
          "name": "",
          "type": "address"
        }
      ],
      "name": "customers",
      "outputs": [
        {
          "internalType": "string",
          "name": "name",
          "type": "string"
        },
        {
          "internalType": "string",
          "name": "idNumber",
          "type": "string"
        },
        {
          "internalType": "bool",
          "name": "kycStatus",
          "type": "bool"
        }
      ],
      "stateMutability": "view",
      "type": "function",
      "constant": true
    },
    {
      "inputs": [
        {
          "internalType": "address",
          "name": "_customer",
          "type": "address"
        },
        {
          "internalType": "string",
          "name": "_name",
          "type": "string"
        },
        {
          "internalType": "string",
          "name": "_idNumber",
          "type": "string"
        },
        {
          "internalType": "bool",
          "name": "_kycStatus",
          "type": "bool"
        }
      ],
      "name": "addOrUpdateKYC",
      "outputs": [],
      "stateMutability": "nonpayable",
      "type": "function"
    },
    {
      "inputs": [
        {
          "internalType": "address",
          "name": "_customer",
          "type": "address"
        }
      ],
      "name": "getKYCStatus",
      "outputs": [
        {
          "internalType": "bool",
          "name": "",
          "type": "bool"
        }
      ],
      "stateMutability": "view",
      "type": "function",
      "constant": true
    }
  ],
  "bytecode": "0x608060405234801561001057600080fd5b50610b03806100206000396000f3fe608060405234801561001057600080fd5b50600436106100405760003560e01c80620c8df014610045578063336989ae14610075578063f2ad7633146100a7575b600080fd5b61005f600480360381019061005a9190610441565b6100c3565b60405161006c9190610489565b60405180910390f35b61008f600480360381019061008a9190610441565b61011b565b60405161009e93929190610534565b60405180910390f35b6100c160048036038101906100bc91906106da565b610262565b005b60008060008373ffffffffffffffffffffffffffffffffffffffff1673ffffffffffffffffffffffffffffffffffffffff16815260200190815260200160002060020160009054906101000a900460ff169050919050565b600060205280600052604060002060009150905080600001805461013e906107a8565b80601f016020809104026020016040519081016040528092919081815260200182805461016a906107a8565b80156101b75780601f1061018c576101008083540402835291602001916101b7565b820191906000526020600020905b81548152906001019060200180831161019a57829003601f168201915b5050505050908060010180546101cc906107a8565b80601f01602080910402602001604051908101604052809291908181526020018280546101f8906107a8565b80156102455780601f1061021a57610100808354040283529160200191610245565b820191906000526020600020905b81548152906001019060200180831161022857829003601f168201915b5050505050908060020160009054906101000a900460ff16905083565b600073ffffffffffffffffffffffffffffffffffffffff168473ffffffffffffffffffffffffffffffffffffffff16036102d1576040517f08c379a00000000000000000000000000000000000000000000000000000000081526004016102c890610825565b60405180910390fd5b60405180606001604052808481526020018381526020018215158152506000808673ffffffffffffffffffffffffffffffffffffffff1673ffffffffffffffffffffffffffffffffffffffff168152602001908152602001600020600082015181600001908161034191906109fb565b50602082015181600101908161035791906109fb565b5060408201518160020160006101000a81548160ff0219169083151502179055509050508373ffffffffffffffffffffffffffffffffffffffff167f2bd9ea086356b3e60459594f10458ff8dae3d16fef711bb3dd479a06f745a246826040516103c19190610489565b60405180910390a250505050565b6000604051905090565b600080fd5b600080fd5b600073ffffffffffffffffffffffffffffffffffffffff82169050919050565b600061040e826103e3565b9050919050565b61041e81610403565b811461042957600080fd5b50565b60008135905061043b81610415565b92915050565b600060208284031215610457576104566103d9565b5b60006104658482850161042c565b91505092915050565b60008115159050919050565b6104838161046e565b82525050565b600060208201905061049e600083018461047a565b92915050565b600081519050919050565b600082825260208201905092915050565b60005b838110156104de5780820151818401526020810190506104c3565b60008484015250505050565b6000601f19601f8301169050919050565b6000610506826104a4565b61051081856104af565b93506105208185602086016104c0565b610529816104ea565b840191505092915050565b6000606082019050818103600083015261054e81866104fb565b9050818103602083015261056281856104fb565b9050610571604083018461047a565b949350505050565b600080fd5b600080fd5b7f4e487b7100000000000000000000000000000000000000000000000000000000600052604160045260246000fd5b6105bb826104ea565b810181811067ffffffffffffffff821117156105da576105d9610583565b5b80604052505050565b60006105ed6103cf565b90506105f982826105b2565b919050565b600067ffffffffffffffff82111561061957610618610583565b5b610622826104ea565b9050602081019050919050565b82818337600083830152505050565b600061065161064c846105fe565b6105e3565b90508281526020810184848401111561066d5761066c61057e565b5b61067884828561062f565b509392505050565b600082601f83011261069557610694610579565b5b81356106a584826020860161063e565b91505092915050565b6106b78161046e565b81146106c257600080fd5b50565b6000813590506106d4816106ae565b92915050565b600080600080608085870312156106f4576106f36103d9565b5b60006107028782880161042c565b945050602085013567ffffffffffffffff811115610723576107226103de565b5b61072f87828801610680565b935050604085013567ffffffffffffffff8111156107505761074f6103de565b5b61075c87828801610680565b925050606061076d878288016106c5565b91505092959194509250565b7f4e487b7100000000000000000000000000000000000000000000000000000000600052602260045260246000fd5b600060028204905060018216806107c057607f821691505b6020821081036107d3576107d2610779565b5b50919050565b7f496e76616c696420637573746f6d657220616464726573732e00000000000000600082015250565b600061080f6019836104af565b915061081a826107d9565b602082019050919050565b6000602082019050818103600083015261083e81610802565b9050919050565b60008190508160005260206000209050919050565b60006020601f8301049050919050565b600082821b905092915050565b6000600883026108a77fffffffffffffffffffffffffffffffffffffffffffffffffffffffffffffffff8261086a565b6108b1868361086a565b95508019841693508086168417925050509392505050565b6000819050919050565b6000819050919050565b60006108f86108f36108ee846108c9565b6108d3565b6108c9565b9050919050565b6000819050919050565b610912836108dd565b61092661091e826108ff565b848454610877565b825550505050565b600090565b61093b61092e565b610946818484610909565b505050565b5b8181101561096a5761095f600082610933565b60018101905061094c565b5050565b601f8211156109af5761098081610845565b6109898461085a565b81016020851015610998578190505b6109ac6109a48561085a565b83018261094b565b50505b505050565b600082821c905092915050565b60006109d2600019846008026109b4565b1980831691505092915050565b60006109eb83836109c1565b9150826002028217905092915050565b610a04826104a4565b67ffffffffffffffff811115610a1d57610a1c610583565b5b610a2782546107a8565b610a3282828561096e565b600060209050601f831160018114610a655760008415610a53578287015190505b610a5d85826109df565b865550610ac5565b601f198416610a7386610845565b60005b82811015610a9b57848901518255600182019150602085019450602081019050610a76565b86831015610ab85784890151610ab4601f8916826109c1565b8355505b6001600288020188555050505b50505050505056fea2646970667358221220da4424e3ea32605180ac8f27158dc3144e08cbaf53e44dccc7135adda94f6c3164736f6c63430008130033",
  "immutableReferences": {},
  "source": "// SPDX-License-Identifier: MIT\r\npragma solidity ^0.8.19;\r\n\r\ncontract KYCContract {\r\n    struct Customer {\r\n        string name;\r\n        string idNumber; // Could be SSN, Passport number etc.\r\n        bool kycStatus;\r\n    }\r\n\r\n    mapping(address => Customer) public customers;\r\n\r\n    event KYCUpdated(address indexed customer, bool status);\r\n\r\n    function addOrUpdateKYC(address _customer, string memory _name, string memory _idNumber, bool _kycStatus) public {\r\n        require(_customer != address(0), \"Invalid customer address.\");\r\n        customers[_customer] = Customer(_name, _idNumber, _kycStatus);\r\n        emit KYCUpdated(_customer, _kycStatus);\r\n    }\r\n\r\n    function getKYCStatus(address _customer) public view returns (bool) {\r\n        return customers[_customer].kycStatus;\r\n    }\r\n}",
  "sourcePath": "C:\\Users\\james\\new2\\contracts\\KYCContract.sol",
  "compiler": {
    "name": "solc",
    "version": "0.8.19+commit.7dd6d404.Emscripten.clang"
  },
  "schemaVersion": "3.4.16",
  "updatedAt": "2024-05-08T22:39:11.418Z",
  "networkType": "ethereum",
  "devdoc": {
    "kind": "dev",
    "methods": {},
    "version": 1
  },
  "userdoc": {
    "kind": "user",
    "methods": {},
    "version": 1
  }
}